:100000000C9462000C948A000C948A000C948A0070
:100010000C948A000C948A000C948A000C948A0038
:100020000C948A000C948A000C948A000C948A0028
:100030000C948A000C948A000C948A000C948A0018
:100040000C9482070C948A000C94F2070C94CC0751
:100050000C948A000C948A000C948A000C948A00F8
:100060000C948A000C948A000000000023002600F3
:10007000290000000000240027002A0000000000E2
:10008000250028002B0004040404040404040202D4
:100090000202020203030303030301020408102007
:1000A0004080010204081020010204081020000012
:1000B0000008000201000003040700000000000027
:1000C0000000240811241FBECFEFD8E0DEBFCDBF53
:1000D00012E0A0E0B1E0E6EDF6E102C005900D927D
:1000E000A831B107D9F722E0A8E1B2E001C01D9222
:1000F000AF3CB207E1F710E0C2E6D0E004C02197C0
:10010000FE010E94630BC136D107C9F70E945B084C
:100110000C94690B0C9400008CBD9DBD0895833038
:1001200081F028F4813099F08230A9F00895873069
:10013000A9F08830C9F08430B1F4809180008F7DBF
:1001400003C0809180008F7780938000089584B5EC
:100150008F7784BD089584B58F7DFBCF8091B000EB
:100160008F778093B00008958091B0008F7DF9CF94
:100170001F93CF93DF93282F30E0F901E255FF4F13
:100180008491F901E656FF4FD491F901EA57FF4FE8
:10019000C491CC23A9F0162F81110E948F00EC2F5F
:1001A000F0E0EE0FFF1FE458FF4FA591B4918FB719
:1001B000F894EC91111108C0D095DE23DC938FBF29
:1001C000DF91CF911F910895DE2BF8CFCF93DF936E
:1001D00090E0FC01E656FF4F24918A579F4FFC01A7
:1001E00084918823D1F090E0880F991FFC01EE588C
:1001F000FF4FA591B491FC01E458FF4FC591D491F4
:1002000061110EC09FB7F8948C91E22FE0958E2378
:100210008C932881E223E8839FBFDF91CF910895DB
:100220008FB7F894EC91E22BEC938FBFF6CF3FB7EA
:10023000F89480911A0290911B02A0911C02B09137
:100240001D0226B5A89B05C02F3F19F00196A11DE0
:10025000B11D3FBFBA2FA92F982F8827BC01CD0110
:10026000620F711D811D911D42E0660F771F881F6F
:10027000991F4A95D1F708958F929F92AF92BF929E
:10028000CF92DF92EF92FF924B015C010E94170127
:100290006B017C010E9417016C197D098E099F0971
:1002A000683E734081059105A8F321E0821A910808
:1002B000A108B10888EEC80E83E0D81EE11CF11C2D
:1002C00081149104A104B10429F7FF90EF90DF900D
:1002D000CF90BF90AF909F908F900895AF92BF92B4
:1002E000CF92DF92EF92FF920F931F93CF93DF9302
:1002F0006C017B018B01040F151FEB015E01AE1831
:10030000BF08C017D10759F06991D601ED91FC9152
:100310000190F081E02DC6010995892B79F7C5017F
:10032000DF91CF911F910F91FF90EF90DF90CF90D1
:10033000BF90AF900895FC01538D448D252F30E080
:10034000842F90E0821B930B541710F0CF960895E2
:1003500001970895FC01918D828D981761F0A28D0F
:10036000AE0FBF2FB11D5D968C91928D9F5F9F73D5
:10037000928F90E008958FEF9FEF0895FC01918D8B
:10038000828D981731F0828DE80FF11D858D90E0F8
:1003900008958FEF9FEF0895FC01918D228D892F95
:1003A00090E0805C9F4F821B91098F73992708957D
:1003B00082E292E00E94CC0121E0892B09F420E046
:1003C000822F089580E090E0892B29F00E94D801C7
:1003D00081110C9400000895FC01A48DA80FB92F81
:1003E000B11DA35ABF4F2C91848D90E001968F735D
:1003F0009927848FA689B7892C93A089B1898C917C
:10040000837080648C93938D848D981306C00288CA
:10041000F389E02D80818F7D80830895EF92FF9294
:100420000F931F93CF93DF93EC0181E0888F9B8D17
:100430008C8D98131AC0E889F989808185FF15C0D1
:100440009FB7F894EE89FF896083E889F9898081F4
:100450008370806480839FBF81E090E0DF91CF91C3
:100460001F910F91FF90EF900895F62E0B8D10E0E5
:100470000F5F1F4F0F731127E02E8C8D8E110CC054
:100480000FB607FCFACFE889F989808185FFF5CF9F
:10049000CE010E94EC01F1CFEB8DEC0FFD2FF11D91
:1004A000E35AFF4FF0829FB7F8940B8FEA89FB89DC
:1004B00080818062CFCFCF93DF93EC01888D88233A
:1004C000B9F0AA89BB89E889F9898C9185FD03C0B7
:1004D000808186FD0DC00FB607FCF7CF8C9185FF9C
:1004E000F2CF808185FFEDCFCE010E94EC01E9CFF4
:1004F000DF91CF910895BC016E5F7F4FDC01ED91DC
:10050000FC910190F081E02D40E0099591E081118E
:1005100090E0892F089508958EBD00000DB407FE68
:10052000FDCF8EB50895DF92EF92FF920F931F9348
:10053000CF93DF937C01062FD42E152F80E590E01A
:100540000E948C0060E0F70186850E94B80082E17D
:100550000E948C02CD2DD12F0C0F1D2F111DC01705
:10056000D10721F089910E948C02F9CF61E0F70157
:100570008685DF91CF911F910F91FF90EF90DF90D3
:100580000C94B8001F93CF93DF93EC01162F80E5F6
:1005900090E00E948C0060E08E850E94B800812F60
:1005A00080680E948C0280E00E948C02182F61E01B
:1005B0008E850E94B800812FDF91CF911F91089501
:1005C0000F931F93CF93DF93EC01062F142F80E539
:1005D00090E00E948C0060E08E850E94B800802F21
:1005E0000E948C02812F0E948C0261E08E85DF9137
:1005F000CF911F910F910C94B800CF92DF92EF92A0
:10060000FF920F931F93CF93DF93EC016B01F42EB6
:10061000890140E062E00E94E00244E06AE0CE012D
:100620000E94E00240E864E1CE010E94E002A601DF
:100630006F2DCE010E94930243E062E0CE010E9442
:10064000E0028FB7F894C0901E02D0901F02E09095
:100650002002F09021028FBF89E5C80ED11CE11C59
:10066000F11C6AE0CE010E94C20282FF1BC040E082
:1006700062E0CE010E94E00264E4CE010E94C20268
:10068000F801808362E4CE010E94C202F8018183F6
:1006900080E0DF91CF911F910F91FF90EF90DF905D
:1006A000CF9008952FB7F89480911E0290911F0269
:1006B000A0912002B09121022FBF8C159D05AE059F
:1006C000BF0578F283E0E5CF2F923F924F925F9281
:1006D0006F927F928F929F92AF92CF92DF92EF9222
:1006E000FF920F931F93CF93DF9300D0CDB7DEB768
:1006F0004C012B01D42E390180E0E114F10411F0FA
:10070000F70180813C2C329490EF3922380E40E082
:1007100062E0C4010E94E0024FE768E0C4010E9469
:10072000E00240E864E1C4010E94E002A2016D2DF4
:10073000C4010E949302432D6AE1C4010E94E002B9
:100740004CE062E0C4010E94E0026AE1C4010E9440
:10075000C202482F40686AE1C4010E94E0028FB7DC
:10076000F89420901E0230901F024090200250907A
:1007700021028FBFF4E22F0E311C411C511C68E096
:10078000C4010E94C202982F907309F0C0C080FF7C
:1007900015C083E00F900F90DF91CF911F910F91C3
:1007A000FF90EF90DF90CF90AF909F908F907F90D1
:1007B0006F905F904F903F902F9008952FB7F894CF
:1007C00080911E0290911F02A0912002B0912102FF
:1007D0002FBF82159305A405B50588F2DACF611401
:1007E000710409F469C00115110509F465C064E1DB
:1007F000C4010E94C202382EF8018081831508F4DA
:1008000080C030823320E1F180E590E00E948C00CE
:1008100060E0F40186850E94B8003A9482E90E9463
:100820008C02CC20B1F08FEF90E09C0102C0220F2F
:10083000331FCA94E2F7690182E90E948C029C2D61
:100840009095F301208192238C21982B9083CC24C6
:10085000C39423014C0C511CC31440F482E90E9440
:100860008C02F20181932F01C394F6CF80E00E94A5
:100870008C02F201808361E0F40186850E94B80059
:1008800068E1C4010E94C2028770E114F10411F012
:10089000F701808323FC37C061147104B1F10115A5
:1008A000110599F1AA2089F1F8014081413031F414
:1008B000843029F58FEF6ECF80E0ECCF4230F8F036
:1008C00081111DC042509E012F5F3F4FB301C401F3
:1008D0000E94FD0281115ECFF8019081690E711CAA
:1008E000F301329720819981291309C0F1E06F1A31
:1008F0007108F30120819A81291709F44BCF87E011
:1009000049CF84E047CF82E045CF80E043CF6CE021
:10091000C4010E94C202282E837109F460CF81E0D5
:1009200039CF8F929F92AF92CF92EF92FF920F9317
:100930001F93CF93DF9300D000D01F92CDB7DEB7C7
:100940004C0182E08D8340E064E2C4010E94E00239
:1009500040E066E2C4010E94E00246E268E4C401AD
:100960000E94E00286E28B838D818230D8F16CE1B7
:10097000C4010E94C202482F4F776CE1C4010E945B
:10098000E00287E08C83A12CC12CCE0104967C016F
:100990008E010B5F1F4F9E012F5F3F4F41E0BE0155
:1009A0006D5F7F4FC4010E946403982F811117C0AF
:1009B0008D818230B9F48C81811114C081E00F9057
:1009C0000F900F900F900F90DF91CF911F910F918B
:1009D000FF90EF90CF90AF909F908F90089581E01F
:1009E000923069F380E0EBCF2F923F924F925F926B
:1009F0006F927F928F929F92AF92BF92CF92DF922F
:100A0000EF92FF920F931F93CF93DF93CDB7DEB793
:100A10002D970FB6F894DEBF0FBECDBF16E041355F
:100A200008F04AC1342E3B014C016CE10E94C20225
:100A3000482F4F776CE1C4010E94E00283E989836B
:100A4000332029F081E0F3019081953008F480E0B3
:100A500022242394B12C9B2D990F990F990FD32CFD
:100A6000D91AD7FCD12C32E0882319F098E89B835F
:100A700033E021E09D2D977009F420E09D2D9595A0
:100A800095959595290FC9F094E0811193E0291768
:100A900008F4922FEB2DF0E03196E60DF71D232F91
:100AA0004191A1E0B0E0AC0FBD1FA20FB11D4C936E
:100AB0002F5F422F431B491798F3882311F0F8E06A
:100AC000DF0E8FE18D150CF082C090E79A838B8149
:100AD0009C8189279D8189279E8189278F839E01FB
:100AE000285F3F4F47E0BE016F5F7F4FC4010E9408
:100AF000FD02182F8111E0C01A86E3E0EB87DC8647
:100B0000CE0107962C0199E09D87CA844C2D429511
:100B1000407F4C0D6AE1C4010E94E002A12CCE018D
:100B20000A967C018E01055F1F4F92014D85BE0123
:100B30006F5F7F4FC4010E946403182F823009F059
:100B400065C06CE1C4010E94C20285FDB5C08F7111
:100B500009F480E2282F30E04D2DDD0C550B4217B3
:100B600053070CF09DC0D82EE82FE595E595E59547
:100B7000EF5F982F977081E009F480E0E80F81E043
:100B800090E08C0F9D1F8E0F911DFC0121503109AB
:100B90002770332781E090E002C0880F991F2A95C3
:100BA000E2F79C018081822B80838BCF85E989834A
:100BB000332031F081E0F3019081983008F04BCF81
:100BC00080E049CF87E9898326E0B22EF9CF9D2DB9
:100BD00097709A878D2D8595859585958E5F282FA1
:100BE0002295207F290F2A8321E0911101C020E066
:100BF000280F2D8744244394512C4C0E5D1E480E23
:100C0000511CE9E0E81BEB87DC867FCF811154C0E3
:100C100080E2D82E9C8590320CF457CF8B81883897
:100C200009F040C083E093E0EB2DF0E03196E60D53
:100C3000F71D980FA1E0B0E0AC0FBD1FA80FB11DCC
:100C40002C9121938F5F8913F5CFBB84E3E0BE1213
:100C50004DC08A8581114AC09E012D5F3F4F41E002
:100C6000B201C4010E94FD02182F811125C09B8191
:100C7000F201818198133CC09C818281981338C015
:100C8000808182FF12C02394F2E02F1609F48ECFE8
:100C900083E0281609F496CF91E0291609F4CECE08
:100CA00015E00AC082E094E0BFCFF3018387822D74
:100CB000880F820D8F5F8083812F2D960FB6F89459
:100CC000DEBF0FBECDBFDF91CF911F910F91FF907F
:100CD000EF90DF90CF90BF90AF909F908F907F90DC
:100CE0006F905F904F903F902F90089511E0E4CF68
:100CF00017E0E2CFCF92DF92EF92FF920F931F9314
:100D0000CF93DF93EB017B0124E0E20EF11C8B011A
:100D10006C01C61AD70AC601800F911F0E942B0BC7
:100D2000F80181938F01EE15FF05A9F7CE01DF9140
:100D3000CF911F910F91FF90EF90DF90CF9008958A
:100D4000AF92BF92CF92DF92EF92FF920F931F93D9
:100D5000CF93DF9300D000D0CDB7DEB790E080E036
:100D60000E942B0BC82ED12CEE24E394F12C10E022
:100D700000E05E0185E0A80EB11C0C151D050CF508
:100D8000BE016F5F7F4FC7010E947A06FE01319658
:100D9000A2ECB2E091918D91981316C0EA15FB0573
:100DA000C9F7C8010F900F900F900F90DF91CF916E
:100DB0001F910F91FF90EF90DF90CF90BF90AF9079
:100DC00008950FEF1FEFEDCF0F5F1F4F84E0E80E88
:100DD000F11CD3CFFC0101900020E9F73197AF015E
:100DE000481B590BBC0182E292E00C946E018F9279
:100DF0009F92AF92BF920F931F93CF93DF93CDB784
:100E0000DEB7A1970FB6F894DEBF0FBECDBF19A213
:100E1000423008F44AE08E010F5D1F4F842E912C62
:100E2000B12CA12CA50194010E94410BE62FB90120
:100E3000CA01EA30F4F4E05DD801EE938D01232B72
:100E4000242B252B79F790E080E0109719F0CD0145
:100E50000E94EA06A1960FB6F894DEBF0FBECDBF82
:100E6000DF91CF911F910F91BF90AF909F908F9086
:100E70000895E95CE1CFCF92DF92EF92FF92CF939A
:100E8000DF936B017C016DE282E292E00E940E0230
:100E9000EC0166277727CB016C197D098E099F0924
:100EA0004AE00E94F7068C0F9D1FDF91CF91FF90C3
:100EB000EF90DF90CF900895CF93DF930E94EA06E2
:100EC000EC018CE191E00E94EA068C0F9D1FDF91FE
:100ED000CF910895CF93DF93BC01990F880B990BA5
:100EE00097FF0CC00E943B07EC018CE191E00E944F
:100EF000EA068C0F9D1FDF91CF9108954AE00E9472
:100F0000F706F2CF1F920F920FB60F9211242F9374
:100F10003F938F939F93AF93BF9380911E029091C5
:100F20001F02A0912002B09121023091190223E00A
:100F3000230F2D3758F50196A11DB11D20931902DD
:100F400080931E0290931F02A0932002B09321026F
:100F500080911A0290911B02A0911C02B0911D0277
:100F60000196A11DB11D80931A0290931B02A093BC
:100F70001C02B0931D02BF91AF919F918F913F9141
:100F80002F910F900FBE0F901F90189526E8230FFA
:100F90000296A11DB11DD2CF1F920F920FB60F92D4
:100FA00011242F933F934F935F936F937F938F936E
:100FB0009F93AF93BF93EF93FF9382E292E00E94DF
:100FC000EC01FF91EF91BF91AF919F918F917F9134
:100FD0006F915F914F913F912F910F900FBE0F90A6
:100FE0001F9018951F920F920FB60F9211242F93F6
:100FF0008F939F93EF93FF93E0913202F09133022E
:101000008081E0913802F091390282FD1BC090810D
:1010100080913B028F5F8F7320913C02821741F0D9
:10102000E0913B02F0E0EE5DFD4F958F80933B0237
:10103000FF91EF919F918F912F910F900FBE0F9085
:101040001F9018958081F4CFE2E2F2E013821282C1
:1010500088EE93E0A0E0B0E084839583A683B78315
:1010600084E091E09183808385EC90E0958784878C
:1010700084EC90E09787868780EC90E0918B808B62
:1010800081EC90E0938B828B82EC90E0958B848B4B
:1010900086EC90E0978B868B118E128E138E148EB9
:1010A000EFEBF2E086E191E0918380838AE086872E
:1010B00089E087870895CF93DF93CDB7DEB72A976E
:1010C0000FB6F894DEBF0FBECDBF789484B58260B2
:1010D00084BD84B5816084BD85B5826085BD85B5DC
:1010E000816085BD80916E00816080936E0010925A
:1010F00081008091810082608093810080918100D5
:101100008160809381008091800081608093800065
:101110008091B10084608093B1008091B0008160C3
:101120008093B00080917A00846080937A008091EF
:101130007A00826080937A0080917A008160809347
:101140007A0080917A00806880937A001092C100C2
:10115000E0913202F091330282E08083E0912E022E
:10116000F0912F021082E0913002F09131028FEC69
:10117000808310923A02E0913602F091370286E0C5
:101180008083E0913402F091350280818061808318
:10119000E0913402F0913502808188608083E09193
:1011A0003402F0913502808180688083E0913402BE
:1011B000F091350280818F7D80831FB7F8948091F4
:1011C0001802811127C0E0E9F0E08491E4EAF0E040
:1011D0009491E82FF0E0EE0FFF1FEE58FF4FA5911E
:1011E000B491EC91E92321F461E08AE00E94B80017
:1011F00061E08AE00E94E6008CB580618CBD8CB510
:1012000080648CBD61E08DE00E94E60061E08BE0CF
:101210000E94E600809118028F5F809318021FBF22
:1012200061E08091CD020E94E60061E08091CD02F4
:101230000E94B8008091CE028F3F09F405C160E0A2
:101240000E94E6002091CE0230E0F901E255FF4F06
:101250008491F901E656FF4F0491F901EA57FF4FD7
:1012600014911111E2C061E08091CE020E94E6006B
:1012700060E08091CE020E94B80083E090E0019788
:10128000F1F761E08091CE020E94B80062E370E065
:1012900080E090E00E943C0140E064E28FEB92E04D
:1012A0000E94E00240E066E28FEB92E00E94E002E2
:1012B00046E268E48FEB92E00E94E00240E864E5D9
:1012C0008FEB92E00E94E00249EA66E58FEB92E044
:1012D0000E94E00243E068E58FEB92E00E94E002AA
:1012E00048EE6AE58FEB92E00E94E00240E46AE299
:1012F0008FEB92E00E94E0024DE362E28FEB92E01E
:101300000E94E00268E28FEB92E00E94C202982FF6
:101310009370933039F0482F436068E28FEB92E08E
:101320000E94E00290E080E00E942B0B833328F0C3
:1013300060E090E080E00E94330B64EF71E080E0B9
:1013400090E00E943C018CE391E00E945C078DEFED
:101350009FEF9C012F5B324019014E0135E0830E57
:10136000911C82E292E00E94CC01181619060CF042
:10137000D9C082E292E00E94AA01813309F07BC0C9
:1013800090E080E00E942B0B082F10E089E591E0AF
:101390000E94EA06C8010E946A07CC24C394D12C9B
:1013A000412C512C3201401651060CF0B7C0BE0141
:1013B0006F5F7F4FC6010E947A068FE291E0411471
:1013C000510439F081E04816510409F041C183E22B
:1013D00091E00E94EA064AE0C301B2010E94F706CA
:1013E00083E192E00E94EA069E012F5F3F4F790160
:1013F000F70161917F0170E090E080E040E10E94A0
:10140000F7068AE391E00E94EA068E149F0481F7B2
:101410008CE191E00E94EA06FFEF4F1A5F0A6F0A23
:101420007F0A24E0C20ED11CBECF81110E948F0022
:10143000E12FF0E0EE0FFF1FE859FF4FA591B491A7
:10144000EC910E2309F40FCF4FE062E08FEB92E0B6
:101450000E94E00213E062E370E080E090E00E940E
:101460003C0162E08FEB92E00E94C20284FF14CF45
:10147000115089F711CF823309F0B9C090E080E0B4
:101480000E942B0B582E87E691E00E945C078FEBA1
:1014900092E00E949104811107C06AE070E080E050
:1014A00090E00E943C01F3CF8FEB92E00E947B0220
:1014B000882399F30E94A006019629F08CE791E019
:1014C0000E945C072BC0C52CD12C7601EE0CFF1CB2
:1014D000EE0CFF1C02EC12E0E20CF31CF801419050
:1014E0008F0137016E0E7F1EC3010E942B0B481621
:1014F00021F0642DC3010E94330BF2E00C3C1F0766
:1015000069F761E0650D90E080E00E94330B8CE8A4
:1015100091E00E94EA06C6010E946A078CE391E00E
:101520000E945C078FEB92E00E949104882309F4EB
:1015300051C08FEB92E00E947B02882309F44AC0DD
:101540000E94A0068C01009709F05CC080EB91E03E
:101550000E945C078EE789838FEF8A8386E08B8306
:1015600086E18C831D821E821F828EEF888785EE26
:1015700089878FEE8A874AE050E0BE016F5F7F4F18
:1015800082E292E00E946E0180E589831A829E01C8
:101590002D5F3F4F42E0BE016F5F7F4F8FEB92E0C8
:1015A0000E94FD02811110C0A12CC12CF12CE12C54
:1015B00010E000E030E020E044E0BE016F5F7F4FCC
:1015C0008FEB92E00E94640368EE73E080E090E0AD
:1015D0000E943C0180E090E0892B09F4C2CE0E9479
:1015E000D801882309F4BDCE0E940000BACE83330F
:1015F00009F094CF60E090E080E00E94330B8DE929
:1016000091E05ECF81309105A1F486EC91E00E94DB
:101610005C078EE789838FEF8A8386E08B8383E084
:101620008C831D821E8281E08F838EEF888787EFF7
:101630009FCF029744F08BED91E00E94EA06C8012B
:101640000E946A07A1CF86EF91E00E945C079CCFC1
:101650008FE191E0BECEF999FECF92BD81BDF89A9F
:10166000992780B50895262FF999FECF1FBA92BD0C
:1016700081BD20BD0FB6F894FA9AF99A0FBE019673
:101680000895A1E21A2EAA1BBB1BFD010DC0AA1FC3
:10169000BB1FEE1FFF1FA217B307E407F50720F0DB
:1016A000A21BB30BE40BF50B661F771F881F991F56
:1016B0001A9469F760957095809590959B01AC019F
:1016C000BD01CF010895EE0FFF1F0590F491E02DAD
:0616D0000994F894FFCF1D
:1016D600000000000E026E019B015B02CC01AA0114
:1016E600BE0100000000F40491047B020D0A0049CB
:1016F6004420004944203120284F4E293A200049F1
:1017060044203020284F4646293A20000A313A2004
:101716004C697374207C20323A20416464207C201A
:10172600333A20436C656172000A526567697374C7
:10173600657265643A20005363616E20636172646A
:1017460020746F20736176652E2E2E00416C7265B3
:1017560061647920657869737473210053617665D5
:101766006420617420496E6465783A20000A5B2122
:101776005D204D656D6F72792052657365740A0040
:10178600416374696F6E3A204F4646202843617262
:10179600642023302900416374696F6E3A204F4EEE
:1017A600202843617264202331290043617264203A
:1017B6007265636F676E697A656420617420696E0D
:1017C6006465783A2000556E6B6E6F776E204361C4
:1017D6007264202D204E6F7420696E20454550524C
:0817E6004F4D00202D3E2000B4
:00000001FF
