:100000000C9462000C948A000C948A000C948A0070
:100010000C948A000C948A000C948A000C948A0038
:100020000C948A000C948A000C948A000C948A0028
:100030000C948A000C948A000C948A000C948A0018
:100040000C94A8070C948A000C9418080C94F207DE
:100050000C948A000C948A000C948A000C948A00F8
:100060000C948A000C948A000000000023002600F3
:10007000290000000000240027002A0000000000E2
:10008000250028002B0004040404040404040202D4
:100090000202020203030303030301020408102007
:1000A0004080010204081020010204081020000012
:1000B0000008000201000003040700000000000027
:1000C00000004A0811241FBECFEFD8E0DEBFCDBF2D
:1000D00011E0A0E0B1E0EAE3F7E102C005900D9283
:1000E000A63FB107D9F722E0A6EFB1E001C01D920B
:1000F000AE3AB207E1F710E0C2E6D0E004C02197C3
:10010000FE010E94950BC136D107C9F70E948108F4
:100110000C949B0B0C9400008CBD9DBD0895833006
:1001200081F028F4813099F08230A9F00895873069
:10013000A9F08830C9F08430B1F4809180008F7DBF
:1001400003C0809180008F7780938000089584B5EC
:100150008F7784BD089584B58F7DFBCF8091B000EB
:100160008F778093B00008958091B0008F7DF9CF94
:100170001F93CF93DF93282F30E0F901E255FF4F13
:100180008491F901E656FF4FD491F901EA57FF4FE8
:10019000C491CC23A9F0162F81110E948F00EC2F5F
:1001A000F0E0EE0FFF1FE458FF4FA591B4918FB719
:1001B000F894EC91111108C0D095DE23DC938FBF29
:1001C000DF91CF911F910895DE2BF8CFCF93DF936E
:1001D00090E0FC01E656FF4F24918A579F4FFC01A7
:1001E00084918823D1F090E0880F991FFC01EE588C
:1001F000FF4FA591B491FC01E458FF4FC591D491F4
:1002000061110EC09FB7F8948C91E22FE0958E2378
:100210008C932881E223E8839FBFDF91CF910895DB
:100220008FB7F894EC91E22BEC938FBFF6CF3FB7EA
:10023000F8948091F9019091FA01A091FB01B0919D
:10024000FC0126B5A89B05C02F3F19F00196A11D02
:10025000B11D3FBFBA2FA92F982F8827BC01CD0110
:10026000620F711D811D911D42E0660F771F881F6F
:10027000991F4A95D1F708958F929F92AF92BF929E
:10028000CF92DF92EF92FF924B015C010E94170127
:100290006B017C010E9417016C197D098E099F0971
:1002A000683E734081059105A8F321E0821A910808
:1002B000A108B10888EEC80E83E0D81EE11CF11C2D
:1002C00081149104A104B10429F7FF90EF90DF900D
:1002D000CF90BF90AF909F908F900895AF92BF92B4
:1002E000CF92DF92EF92FF920F931F93CF93DF9302
:1002F0006C017B018B01040F151FEB015E01AE1831
:10030000BF08C017D10759F06991D601ED91FC9152
:100310000190F081E02DC6010995892B79F7C5017F
:10032000DF91CF911F910F91FF90EF90DF90CF90D1
:10033000BF90AF900895CF93DF93CDB7DEB72A97E4
:100340000FB6F894DEBF0FBECDBF9EE799839FEF37
:100350009A8396E09B838C831D821E826F8390E03C
:100360008B5F9E4F680F792F711D71956195710993
:10037000788769878FEE8A874AE050E0BE016F5F19
:100380007F4F81E092E00E946E012A960FB6F894AA
:10039000DEBF0FBECDBFDF91CF910895FC01538D1D
:1003A000448D252F30E0842F90E0821B930B54174F
:1003B00010F0CF96089501970895FC01918D828DDC
:1003C000981761F0A28DAE0FBF2FB11D5D968C9175
:1003D000928D9F5F9F73928F90E008958FEF9FEFB4
:1003E0000895FC01918D828D981731F0828DE80F70
:1003F000F11D858D90E008958FEF9FEF0895FC012A
:10040000918D228D892F90E0805C9F4F821B9109F6
:100410008F739927089581E092E00E94FF0121E007
:10042000892B09F420E0822F089580E090E0892B49
:1004300029F00E940B0281110C9400000895FC0128
:10044000A48DA80FB92FB11DA35ABF4F2C91848D35
:1004500090E001968F739927848FA689B7892C9392
:10046000A089B1898C91837080648C93938D848DE5
:10047000981306C00288F389E02D80818F7D8083E8
:100480000895EF92FF920F931F93CF93DF93EC01A8
:1004900081E0888F9B8D8C8D98131AC0E889F9892B
:1004A000808185FF15C09FB7F894EE89FF8960832E
:1004B000E889F98980818370806480839FBF81E0AF
:1004C00090E0DF91CF911F910F91FF90EF900895F1
:1004D000F62E0B8D10E00F5F1F4F0F731127E02ECC
:1004E0008C8D8E110CC00FB607FCFACFE889F98904
:1004F000808185FFF5CFCE010E941F02F1CFEB8DE9
:10050000EC0FFD2FF11DE35AFF4FF0829FB7F894D7
:100510000B8FEA89FB8980818062CFCFCF93DF93F5
:10052000EC01888D8823B9F0AA89BB89E889F9890B
:100530008C9185FD03C0808186FD0DC00FB607FC40
:10054000F7CF8C9185FFF2CF808185FFEDCFCE0173
:100550000E941F02E9CFDF91CF910895BC016E5F29
:100560007F4FDC01ED91FC910190F081E02D40E0A6
:10057000099591E0811190E0892F089508958EBD2D
:1005800000000DB407FEFDCF8EB50895DF92EF9207
:10059000FF920F931F93CF93DF937C01062FD42EEE
:1005A000152F80E590E00E948C0060E0F7018685C1
:1005B0000E94B80082E10E94BF02CD2DD12F0C0F06
:1005C0001D2F111DC017D10721F089910E94BF0274
:1005D000F9CF61E0F7018685DF91CF911F910F91EF
:1005E000FF90EF90DF900C94B8001F93CF93DF93B0
:1005F000EC01162F80E590E00E948C0060E08E8573
:100600000E94B800812F80680E94BF0280E00E9493
:10061000BF02182F61E08E850E94B800812FDF9104
:10062000CF911F9108950F931F93CF93DF93EC0108
:10063000062F142F80E590E00E948C0060E08E85EC
:100640000E94B800802F0E94BF02812F0E94BF022B
:1006500061E08E85DF91CF911F910F910C94B800CE
:10066000CF92DF92EF92FF920F931F93CF93DF937E
:10067000EC016B01F42E890140E062E00E9413035B
:1006800044E06AE0CE010E94130340E864E1CE0139
:100690000E941303A6016F2DCE010E94C60243E003
:1006A00062E0CE010E9413038FB7F894C090FD0161
:1006B000D090FE01E090FF01F09000028FBF89E52D
:1006C000C80ED11CE11CF11C6AE0CE010E94F502AB
:1006D00082FF1BC040E062E0CE010E94130364E48D
:1006E000CE010E94F502F801808362E4CE010E94EF
:1006F000F502F801818380E0DF91CF911F910F9186
:10070000FF90EF90DF90CF9008952FB7F8948091ED
:10071000FD019091FE01A091FF01B09100022FBF59
:100720008C159D05AE05BF0578F283E0E5CF2F92CD
:100730003F924F925F926F927F928F929F92AF9271
:10074000CF92DF92EF92FF920F931F93CF93DF939D
:1007500000D0CDB7DEB74C012B01D42E390180E09B
:10076000E114F10411F0F70180813C2C329490EFF8
:100770003922380E40E062E0C4010E9413034FE7C3
:1007800068E0C4010E94130340E864E1C4010E94D0
:100790001303A2016D2DC4010E94C602432D6AE11C
:1007A000C4010E9413034CE062E0C4010E941303E1
:1007B0006AE1C4010E94F502482F40686AE1C40161
:1007C0000E9413038FB7F8942090FD013090FE0132
:1007D0004090FF01509000028FBFF4E22F0E311CB9
:1007E000411C511C68E0C4010E94F502982F9073CF
:1007F00009F0C0C080FF15C083E00F900F90DF911B
:10080000CF911F910F91FF90EF90DF90CF90AF901D
:100810009F908F907F906F905F904F903F902F9020
:1008200008952FB7F8948091FD019091FE01A09159
:10083000FF01B09100022FBF82159305A405B505F5
:1008400088F2DACF6114710409F469C00115110549
:1008500009F465C064E1C4010E94F502382EF80174
:100860008081831508F480C030823320E1F180E577
:1008700090E00E948C0060E0F40186850E94B80040
:100880003A9482E90E94BF02CC20B1F08FEF90E051
:100890009C0102C0220F331FCA94E2F7690182E96A
:1008A0000E94BF029C2D9095F301208192238C2100
:1008B000982B9083CC24C39423014C0C511CC3145B
:1008C00040F482E90E94BF02F20181932F01C39498
:1008D000F6CF80E00E94BF02F201808361E0F40164
:1008E00086850E94B80068E1C4010E94F502877005
:1008F000E114F10411F0F701808323FC37C0611487
:100900007104B1F10115110599F1AA2089F1F801DD
:100910004081413031F4843029F58FEF6ECF80E093
:10092000ECCF4230F8F081111DC042509E012F5F84
:100930003F4FB301C4010E94300381115ECFF80123
:100940009081690E711CF3013297208199812913DE
:1009500009C0F1E06F1A7108F30120819A8129170B
:1009600009F44BCF87E049CF84E047CF82E045CF01
:1009700080E043CF6CE0C4010E94F502282E837111
:1009800009F460CF81E039CF8F929F92AF92CF92DE
:10099000EF92FF920F931F93CF93DF9300D000D07D
:1009A0001F92CDB7DEB74C0182E08D8340E064E258
:1009B000C4010E94130340E066E2C4010E941303D5
:1009C00046E268E4C4010E94130386E28B838D81B2
:1009D0008230D8F16CE1C4010E94F502482F4F77B4
:1009E0006CE1C4010E94130387E08C83A12CC12C0D
:1009F000CE0104967C018E010B5F1F4F9E012F5F7D
:100A00003F4F41E0BE016D5F7F4FC4010E949703DD
:100A1000982F811117C08D818230B9F48C8181119A
:100A200014C081E00F900F900F900F900F90DF9106
:100A3000CF911F910F91FF90EF90CF90AF909F902B
:100A40008F90089581E0923069F380E0EBCF2F9290
:100A50003F924F925F926F927F928F929F92AF924E
:100A6000BF92CF92DF92EF92FF920F931F93CF939B
:100A7000DF93CDB7DEB72D970FB6F894DEBF0FBE6C
:100A8000CDBF16E0413508F04AC1342E3B014C0180
:100A90006CE10E94F502482F4F776CE1C4010E947F
:100AA000130383E98983332029F081E0F3019081E6
:100AB000953008F480E022242394B12C9B2D990FCB
:100AC000990F990FD32CD91AD7FCD12C32E0882357
:100AD00019F098E89B8333E021E09D2D977009F48D
:100AE00020E09D2D959595959595290FC9F094E059
:100AF000811193E0291708F4922FEB2DF0E0319645
:100B0000E60DF71D232F4191A1E0B0E0AC0FBD1F12
:100B1000A20FB11D4C932F5F422F431B491798F32F
:100B2000882311F0F8E0DF0E8FE18D150CF082C004
:100B300090E79A838B819C8189279D8189279E815B
:100B400089278F839E01285F3F4F47E0BE016F5F7B
:100B50007F4FC4010E943003182F8111E0C01A8614
:100B6000E3E0EB87DC86CE0107962C0199E09D87B8
:100B7000CA844C2D4295407F4C0D6AE1C4010E940D
:100B80001303A12CCE010A967C018E01055F1F4F35
:100B900092014D85BE016F5F7F4FC4010E94970394
:100BA000182F823009F065C06CE1C4010E94F50283
:100BB00085FDB5C08F7109F480E2282F30E04D2DFE
:100BC000DD0C550B421753070CF09DC0D82EE82FB3
:100BD000E595E595E595EF5F982F977081E009F42D
:100BE00080E0E80F81E090E08C0F9D1F8E0F911D3B
:100BF000FC01215031092770332781E090E002C0C9
:100C0000880F991F2A95E2F79C018081822B8083AF
:100C10008BCF85E98983332031F081E0F301908126
:100C2000983008F04BCF80E049CF87E9898326E0F0
:100C3000B22EF9CF9D2D97709A878D2D859585952C
:100C400085958E5F282F2295207F290F2A8321E00A
:100C5000911101C020E0280F2D8744244394512C8A
:100C60004C0E5D1E480E511CE9E0E81BEB87DC864C
:100C70007FCF811154C080E2D82E9C8590320CF435
:100C800057CF8B81883809F040C083E093E0EB2D8B
:100C9000F0E03196E60DF71D980FA1E0B0E0AC0F43
:100CA000BD1FA80FB11D2C9121938F5F8913F5CF24
:100CB000BB84E3E0BE124DC08A8581114AC09E010B
:100CC0002D5F3F4F41E0B201C4010E943003182F55
:100CD000811125C09B81F201818198133CC09C81C8
:100CE0008281981338C0808182FF12C02394F2E081
:100CF0002F1609F48ECF83E0281609F496CF91E0E1
:100D0000291609F4CECE15E00AC082E094E0BFCFE8
:100D1000F3018387822D880F820D8F5F8083812F5F
:100D20002D960FB6F894DEBF0FBECDBFDF91CF91E9
:100D30001F910F91FF90EF90DF90CF90BF90AF90F9
:100D40009F908F907F906F905F904F903F902F90EB
:100D5000089511E0E4CF17E0E2CFCF92DF92EF9257
:100D6000FF920F931F93CF93DF93EB017B0124E05E
:100D7000E20EF11C8B016C01C61AD70AC601800F66
:100D8000911F0E945D0BF80181938F01EE15FF0505
:100D9000A9F7CE01DF91CF911F910F91FF90EF90B6
:100DA000DF90CF900895AF92BF92CF92DF92EF92F3
:100DB000FF920F931F93CF93DF9300D000D0CDB756
:100DC000DEB790E080E00E945D0BC82ED12CEE24AF
:100DD000E394F12C10E000E05E0185E0A80EB11C68
:100DE0000C151D050CF5BE016F5F7F4FC7010E94FA
:100DF000AD06FE013196A1EAB2E091918D91981372
:100E000016C0EA15FB05C9F7C8010F900F900F90A7
:100E10000F90DF91CF911F910F91FF90EF90DF9096
:100E2000CF90BF90AF9008950FEF1FEFEDCF0F5F02
:100E30001F4F84E0E80EF11CD3CFFC01019000208D
:100E4000E9F73197AF01481B590BBC0181E092E0F3
:100E50000C946E018F929F92AF92BF920F931F934B
:100E6000CF93DF93CDB7DEB7A1970FB6F894DEBF6F
:100E70000FBECDBF19A2423008F44AE08E010F5DCB
:100E80001F4F842E912CB12CA12CA50194010E94FE
:100E9000730BE62FB901CA01EA30F4F4E05DD80122
:100EA000EE938D01232B242B252B79F790E080E006
:100EB000109719F0CD010E941D07A1960FB6F89466
:100EC000DEBF0FBECDBFDF91CF911F910F91BF90BD
:100ED000AF909F908F900895E95CE1CFCF93DF931F
:100EE0000E941D07EC018EE191E00E941D078C0F0E
:100EF0009D1FDF91CF910895CF92DF92EF92FF92E5
:100F0000CF93DF9397FF1BC06B017C016DE281E003
:100F100092E00E944102EC0166277727CB016C1911
:100F20007D098E099F094AE00E942A078C0F9D1FA8
:100F3000DF91CF91FF90EF90DF90CF9008954AE03E
:100F4000DF91CF91FF90EF90DF90CF900C942A0724
:100F50001F920F920FB60F9211242F933F938F93EE
:100F60009F93AF93BF938091FD019091FE01A0915B
:100F7000FF01B09100023091F80123E0230F2D37DB
:100F800058F50196A11DB11D2093F8018093FD0134
:100F90009093FE01A093FF01B09300028091F901AC
:100FA0009091FA01A091FB01B091FC010196A11D65
:100FB000B11D8093F9019093FA01A093FB01B093C6
:100FC000FC01BF91AF919F918F913F912F910F9015
:100FD0000FBE0F901F90189526E8230F0296A11DB3
:100FE000B11DD2CF1F920F920FB60F9211242F93E3
:100FF0003F934F935F936F937F938F939F93AF93A1
:10100000BF93EF93FF9381E092E00E941F02FF9154
:10101000EF91BF91AF919F918F917F916F915F9170
:101020004F913F912F910F900FBE0F901F901895E9
:101030001F920F920FB60F9211242F938F939F93AD
:10104000EF93FF93E0911102F09112028081E09101
:101050001702F091180282FD1BC0908180911A0244
:101060008F5F8F7320911B02821741F0E0911A026B
:10107000F0E0EF5FFD4F958F80931A02FF91EF91A3
:101080009F918F912F910F900FBE0F901F901895E9
:101090008081F4CFE1E0F2E01382128288EE93E0E7
:1010A000A0E0B0E084839583A683B78386E091E0D7
:1010B0009183808385EC90E09587848784EC90E031
:1010C0009787868780EC90E0918B808B81EC90E015
:1010D000938B828B82EC90E0958B848B86EC90E0F6
:1010E000978B868B118E128E138E148EEEE9F2E0A2
:1010F00088E191E0918380838AE0868789E0878711
:101100000895CF93DF9300D000D000D0CDB7DEB7E5
:10111000789484B5826084BD84B5816084BD85B5D2
:10112000826085BD85B5816085BD80916E008160DE
:1011300080936E0010928100809181008260809384
:101140008100809181008160809381008091800086
:101150008160809380008091B10084608093B100B1
:101160008091B00081608093B00080917A008460AB
:1011700080937A0080917A00826080937A008091D7
:101180007A00816080937A0080917A0080688093F1
:101190007A001092C100E0911102F091120282E0F7
:1011A0008083E0910D02F0910E021082E0910F0217
:1011B000F09110028FEC808310921902E0911502D9
:1011C000F091160286E08083E0911302F091140200
:1011D000808180618083E0911302F091140280810C
:1011E00088608083E0911302F0911402808180680E
:1011F0008083E0911302F091140280818F7D8083BF
:101200001FB7F8948091F601811127C0E0E9F0E062
:101210008491E4EAF0E09491E82FF0E0EE0FFF1FF4
:10122000EE58FF4FA591B491EC91E92321F461E0D0
:101230008AE00E94B80061E08AE00E94E6008CB576
:1012400080618CBD8CB580648CBD61E08DE00E94B6
:10125000E60061E08BE00E94E6008091F6018F5F7E
:101260008093F6011FBF61E08091AC020E94E6000E
:1012700061E08091AC020E94B8008091AD028F3F86
:1012800009F40EC160E00E94E6002091AD0230E05A
:10129000F901E255FF4F8491F901E656FF4F0491A1
:1012A000F901EA57FF4F14911111EBC061E08091F1
:1012B000AD020E94E60060E08091AD020E94B8009D
:1012C00083E090E00197F1F761E08091AD020E9428
:1012D000B80062E370E080E090E00E943C0140E0F2
:1012E00064E28EE992E00E94130340E066E28EE938
:1012F00092E00E94130346E268E48EE992E00E94C5
:10130000130340E864E58EE992E00E94130349EA82
:1013100066E58EE992E00E94130343E068E58EE9FA
:1013200092E00E94130348EE6AE58EE992E00E9483
:10133000130340E46AE28EE992E00E9413034DE356
:1013400062E28EE992E00E94130368E28EE992E085
:101350000E94F502982F9370933039F0482F436024
:1013600068E28EE992E00E94130390E080E00E9420
:101370005D0B833328F060E090E080E00E94650B15
:1013800064EF71E080E090E00E943C0181E291E036
:101390000E946E078DEF9FEF9C012E5932403E83D5
:1013A0002D834E0135E0830E911C90E0692E90E074
:1013B000792EBB24B39481E092E00E94FF011816BD
:1013C00019060CF0E4C081E092E00E94DD01813357
:1013D00009F07DC090E080E00E945D0B182FC82EC0
:1013E000D12C8EE391E00E941D07612F70E090E008
:1013F00080E00E947C078EE191E00E941D07212C75
:10140000312C210101E010E02C143D040CF0BBC094
:10141000BE016F5F7F4FC8010E94AD068CE491E072
:101420000E941D07C201B1010E947C0780E591E086
:101430000E941D078FEF281A380A480A580AC2016D
:10144000B1010E947C0788E591E00E941D07FE0122
:1014500031967F01F70161917F0170E090E080E0BB
:1014600040E10E942A078AE491E00E941D078E1441
:101470009F0481F78EE191E00E941D070C5F1F4FD2
:10148000C3CF81110E948F00E12FF0E0EE0FFF1F0C
:10149000E859FF4FA591B491EC910E2309F406CFC2
:1014A0004FE062E08EE992E00E94130313E062E3F2
:1014B00070E080E090E00E943C0162E08EE992E002
:1014C0000E94F50284FF0BCF115089F708CF8233B9
:1014D00009F0CBC090E080E00E945D0B582E8FE5B4
:1014E00091E00E946E078EE992E00E94C40481118F
:1014F00007C06AE070E080E090E00E943C01F3CF1A
:101500008EE992E00E94AE02882399F30E94D306EE
:10151000019629F084E791E00E946E0734C024E030
:10152000529E8001112481EAE82E82E0F82E8D81FE
:101530009E81080F191FF70141907F016801CE0EAF
:10154000DF1EC6010E945D0B481621F0642DC60106
:101550000E94650BFBEAEF16F2E0FF0661F761E01F
:10156000650D90E080E00E94650B84E891E00E94A8
:101570001D07652D70E090E080E00E947C078EE101
:1015800091E00E941D0781E291E00E946E078EE9C2
:1015900092E00E94C404882309F45BC08EE992E0C3
:1015A0000E94AE02882309F454C00E94D3068C0125
:1015B00097FD7EC06C01990FEE08FF088091F7013E
:1015C000882309F45DC08091000190910101081702
:1015D000190709F055C088EA91E00E941D07C7016C
:1015E000B6010E947C078CEB91E00E946E0760E0E0
:1015F00086E10E949B011092F7012FEF3FEF30939D
:1016000001012093000130E539831A829E012D5F8C
:101610003F4F42E0BE016F5F7F4F8EE992E00E9434
:101620003003811110C0A12CC12CF12CE12C10E051
:1016300000E030E020E044E0BE016F5F7F4F8EE9C4
:1016400092E00E94970368EE73E080E090E00E94D1
:101650003C016114710409F4AECE0E940B02882390
:1016600009F4A7CE0E940000A0CE833309F08BCFEF
:1016700060E090E080E00E94650B85E991E04CCF4E
:1016800085EC91E00E941D07C701B6010E947C070E
:1016900083EC91E00E946E0761E0600F83E00E949E
:1016A0009B01B092F7011093010100930001ABCFB1
:1016B00088ED91E00E946E07A6CFF999FECF92BD0A
:1016C00081BDF89A992780B50895262FF999FECF04
:1016D0001FBA92BD81BD20BD0FB6F894FA9AF99A4F
:1016E0000FBE01960895A1E21A2EAA1BBB1BFD0195
:1016F0000DC0AA1FBB1FEE1FFF1FA217B307E407F1
:10170000F50720F0A21BB30BE40BF50B661F771F48
:10171000881F991F1A9469F7609570958095909528
:101720009B01AC01BD01CF010895EE0FFF1F059095
:0A173000F491E02D0994F894FFCF26
:10173A00FFFF0000000041026E01CE018E02FF0190
:10174A00DD01F101000000002705C404AE020D0A04
:10175A00000A313A204C697374207C20323A2041C5
:10176A006464207C20333A20436C656172000A521B
:10177A006567697374657265643A2000494420009C
:10178A002028536F6E672000293A202D3E200053EF
:10179A0063616E206361726420746F207361766581
:1017AA002E2E2E00416C726561647920657869730A
:1017BA0074732100536176656420617420496E64F4
:1017CA0065783A20000A5B215D204D656D6F72795C
:1017DA002052657365740A00416374696F6E3A201A
:1017EA004F464620284361726420230020746F67A5
:1017FA00676C652900416374696F6E3A204F4E2009
:10180A002843617264202300556E6B6E6F776E20D9
:10181A0043617264202D204E6F7420696E20454505
:06182A0050524F4D00007A
:00000001FF
